:020000040800F2
:1000000000000220950C0008210B0008230B0008BB
:10001000250B0008270B0008290B00080000000032
:100020000000000000000000000000002B0B000892
:100030002D0B0008000000002F0B0008310B0008FA
:10004000E50C0008E50C0008E50C0008E50C0008CC
:10005000E50C0008E50C0008E50C0008E50C0008BC
:10006000E50C0008E50C0008E50C0008E50C0008AC
:10007000390B0008E50C0008E50C0008E50C000849
:10008000E50C0008E50C0008E50C0008490B000829
:10009000590B0008E50C0008E50C0008E50C000809
:1000A000E50C0008E50C0008E50C0008E50C00086C
:1000B000E50C0008E50C0008E50C0008E50C00085C
:1000C000E50C0008E50C0008E50C0008E50C00084C
:1000D000E50C0008E50C0008E50C0008690B0008B9
:1000E000E50C0008E50C0008E50C0008E50C00082C
:1000F000E50C0008E50C0008E50C0008E50C00081C
:10010000E50C0008E50C0008E50C0008E50C00080B
:10011000E50C0008E50C0008E50C0008E50C0008FB
:10012000E50C0008E50C0008E50C0008E50C0008EB
:10013000E50C0008E50C0008E50C0008790B000848
:10014000E50C0008890B0008E50C0008E50C000828
:10015000E50C0008E50C0008E50C0008E50C0008BB
:10016000E50C0008E50C0008E50C0008E50C0008AB
:10017000E50C0008E50C0008E50C00080000000094
:08018000E50C0008E50C000885
:100188004FF0FF0C1CEAD0521EBF1CEAD15392EA72
:100198000C0F93EA0C0F6FD01A4480EA010C40024E
:1001A80018BF5FEA41211ED04FF0006343EA5010A8
:1001B80043EA5111A0FB01310CF00040B1F5000FEA
:1001C8003EBF490041EAD3715B0040EA010062F199
:1001D8007F02FD2A1DD8B3F1004F40EBC25008BF83
:1001E80020F00100704790F0000F0CF0004C08BFA1
:1001F80049024CEA502040EA51207F3AC2BFD2F16E
:10020800FF0340EAC250704740F400004FF000037B
:10021800013A5DDC12F1190FDCBF00F000407047B5
:10022800C2F10002410021FA02F1C2F1200200FAF3
:1002380002FC5FEA310040F1000053EA4C0308BFBA
:1002480020EADC70704792F0000F00F0004C02BF0B
:10025800400010F4000F013AF9D040EA0C0093F086
:10026800000F01F0004C02BF490011F4000F013BE0
:10027800F9D041EA0C018FE70CEAD15392EA0C0F4E
:1002880018BF93EA0C0F0AD030F0004C18BF31F0B9
:10029800004CD8D180EA010000F00040704790F08F
:1002A800000F17BF90F0004F084691F0000F91F033
:1002B800004F14D092EA0C0F01D142020FD193EAF9
:1002C8000C0F03D14B0218BF084608D180EA010081
:1002D80000F0004040F0FE4040F40000704740F05D
:1002E800FE4040F44000704780F0004002E000BF4C
:1002F80081F0004142001FBF5FEA410392EA030F09
:100308007FEA226C7FEA236C6AD04FEA1262D2EB52
:100318001363C1BFD218414048404140B8BF5B4257
:10032800192B88BF704710F0004F40F4000020F0F0
:100338007F4018BF404211F0004F41F4000121F006
:100348007F4118BF494292EA030F3FD0A2F1010250
:1003580041FA03FC10EB0C00C3F1200301FA03F18E
:1003680000F0004302D5494260EB4000B0F5000FB1
:1003780013D3B0F1807F06D340084FEA310102F170
:100388000102FE2A51D2B1F1004F40EBC25008BF22
:1003980020F0010040EA03007047490040EB0000EC
:1003A800013A28BFB0F5000FEDD2B0FA80FCACF1ED
:1003B800080CB2EB0C0200FA0CF0AABF00EBC2501A
:1003C80052421843BCBFD0401843704792F0000F08
:1003D80081F4000106BF80F400000132013BB5E75B
:1003E8004FEA41037FEA226C18BF7FEA236C21D0D1
:1003F80092EA030F04D092F0000F08BF0846704736
:1004080090EA010F1CBF0020704712F07F4F04D103
:10041800400028BF40F00040704712F100723CBF16
:1004280000F50000704700F0004343F0FE4040F440
:10043800000070477FEA226216BF08467FEA2363FE
:100448000146420206BF5FEA412390EA010F40F4E9
:10045800800070474FF0000304E000BF10F0004335
:1004680048BF40425FEA000C08BF704743F096431C
:1004780001464FF000001CE050EA010208BF704737
:100488004FF000030AE000BF50EA010208BF7047BE
:1004980011F0004302D5404261EB41015FEA010CD3
:1004A80002BF84460146002043F0B64308BFA3F1CB
:1004B8008053A3F50003BCFA8CF2083AA3EBC253AD
:1004C80010DB01FA02FC634400FA02FCC2F12002CC
:1004D800BCF1004F20FA02F243EB020008BF20F003
:1004E8000100704702F1200201FA02FCC2F1200269
:1004F80050EA4C0021FA02F243EB020008BF20EA5E
:10050800DC7070474FF0FF3C06E000BF4FF0010C75
:1005180002E000BF4FF0010C4DF804CD4FEA400255
:100528004FEA41037FEA226C18BF7FEA236C11D09F
:1005380001B052EA530C18BF90EA010F58BFB2EB52
:10054800030088BFC81738BF6FEAE17018BF40F0D2
:10055800010070477FEA226C02D15FEA402C05D186
:100568007FEA236CE4D15FEA412CE1D05DF8040B0B
:10057800704700BF844608466146FFE70FB5FFF79E
:10058800C9FF002848BF10F1000F0FBD4DF808ED56
:10059800FFF7F4FF0CBF012000205DF808FB00BF47
:1005A8004DF808EDFFF7EAFF34BF012000205DF8A1
:1005B80008FB00BF4DF808EDFFF7E0FF94BF0120EE
:1005C80000205DF808FB00BF4DF808EDFFF7D2FFEB
:1005D80094BF012000205DF808FB00BF4DF808ED2E
:1005E800FFF7C8FF34BF012000205DF808FB00BFFB
:1005F8004FEA4002B2F1FE4F0FD34FF09E03B3EB28
:1006080012620DD94FEA002343F0004310F0004F67
:1006180023FA02F018BF404270474FF000007047BD
:1006280012F1610F01D1420205D110F0004008BF5C
:100638006FF0004070474FF00000704753B94AB957
:10064800002908BF00281CBF4FF0FF314FF0FF30D2
:1006580000F00CB8ADF1080C6DE904CE02F0FCFE18
:10066800DDF804E0DDE9022304B07047704700BFFD
:100678000348044B834202D0034B03B11847704729
:100688001000002010000020000000000548064B64
:100698001B1AD90F01EBA301491002D0034B03B178
:1006A80018477047100000201000002000000000CC
:1006B80010B5064C237843B9FFF7DAFF044B13B1A2
:1006C8000448AFF300800123237010BD1000002000
:1006D80000000000E038000808B5054B1BB10549CB
:1006E8000548AFF30080BDE80840FFF7CFBF00BF63
:1006F8000000000014000020E038000808B50D488C
:100708000D4B03600723436000238360C3604FF4ED
:10071800803202614FF40012426103764376837699
:10072800C3760377437700F041FB00B908BD00F0BA
:100738004DF9FBE7580000200064004008B50D485B
:100748000D4B03600723436000238360C3604FF4AD
:10075800803202614FF40012426103764376837659
:10076800C3760377437700F021FB00B908BD00F09A
:100778002DF9FBE7300000200068004010B58AB072
:100788000023059306930793089309930368454A42
:10079800934204D0444A93423CD00AB010BD434A25
:1007A800136801331360012B27D000240194404BB8
:1007B8001A6B42F008021A631B6B03F008030193DB
:1007C800019B0323059302220692089309230993A8
:1007D80005A9384801F0C0F922462146132000F047
:1007E80033FF132000F040FF22462146142000F07A
:1007F8002BFF142000F038FFCFE7002300932C4B89
:100808001A6C42F000721A641B6C03F000730093B8
:10081800009BCAE700230293254B1A6C42F08062C2
:100828001A641B6C03F080630293029B1F4A1368CF
:1008380001331360012B28D0002404941C4B1A6B3D
:1008480042F002021A631B6B03F002030493049B39
:10085800602305930223069303230893092309932E
:1008680005A9154801F078F9224621463F2000F0F5
:10087800EBFE3F2000F0F8FE22462146412000F022
:10088800E3FE412000F0F0FE87E700230393084BC6
:100898001A6C42F000721A641B6C03F00073039325
:1008A800039BC9E700640040006800402C0000205A
:1008B80000380240000C02400004024000B583B03A
:1008C80000210191094B1A6B42F400121A631B6B49
:1008D80003F400130193019B0A460C2000F0B4FEB8
:1008E8000C2000F0C1FE03B05DF804FB00380240A4
:1008F80030B58BB0002405940694079408940994A5
:100908000094234B1A6B42F002021A631A6B02F02E
:1009180002020092009A01941A6B42F001021A63D3
:100928001A6B02F001020192019A02941A6B42F0CA
:1009380008021A631A6B02F008020292029A0394E0
:100948001A6B42F004021A631A6B02F00402039253
:10095800039A04941A6B42F080021A631B6B03F02B
:1009680080030493049B0B4D22464FF48061284674
:1009780001F0ECF94FF48063059301230693079483
:10098800089405A9284601F0E7F80BB030BD00BF70
:1009980000380240001C024038B5094D0949284674
:1009A80002F001F9084C12222946204602F0C8F844
:1009B800E36B1A68136823F00803136038BD00BF9F
:1009C8002C0100202C030020E000002072B6FEE776
:1009D80000B595B03022002108A802F09BFE002344
:1009E800039304930593069307930193204A116C8C
:1009F80041F080511164126C02F080520192019A08
:100A080002931C4B1A6842F480421A601B6803F474
:100A180080430293029B012308934FF48033099388
:100A280002230E934FF480020F9206221092A822FE
:100A3800119212930423139308A801F08DF998B921
:100A48000F23039302230493002305934FF4A05329
:100A580006934FF480530793052103A801F0CCFBBC
:100A680020B915B05DF804FBFFF7B0FFFFF7AEFF44
:100A7800003802400070004008B500F057F9FFF751
:100A8800A7FFFFF735FFFFF719FFFFF737FEFFF75F
:100A980055FE00F07FF802F023FA02F047FA02F060
:100AA80077FC02F0C3F809E00C4BB3F9020002F03E
:100AB8003BF902F0F1F9012000F064F9074BB3F9B2
:100AC8000430022BF0D1054BB3F90630032BEBD1E0
:100AD800024BB3F9000002F0BBF8E5E74C03002035
:100AE80082B0002100910B4B5A6C42F480425A6448
:100AF8005A6C02F480420092009A01911A6C42F0FA
:100B080080521A641B6C03F080530193019B02B05E
:100B1800704700BF00380240FEE7FEE7FEE7FEE749
:100B2800FEE770477047704708B500F019F908BD2F
:100B380008B5024800F022FF08BD00BF8000002071
:100B480008B5024800F004FC08BD00BF58000020AA
:100B580008B5024800F0FCFB08BD00BF58000020A3
:100B680008B5024801F0FCFD08BD00BFE000002008
:100B780008B5024800F0ECFB08BD00BF30000020BB
:100B880008B5024800F0E4FB08BD00BF30000020B3
:100B98007047000008B50B480B4B03600B4B4360D4
:100BA8004FF4805383600023C36003610C224261C9
:100BB8008361C36101F0ECFC00B908BDFFF706FFD3
:100BC800FBE700BFE000002000480040A0860100CD
:100BD80030B589B0002303930493059306930793D4
:100BE8000268264B9A4201D009B030BD0446002560
:100BF800019503F5F8331A6C42F480221A641A6CD2
:100C080002F480220192019A02951A6B42F00402C2
:100C18001A631B6B03F004030293029B4FF44063B7
:100C2800039302230493032306930723079303A93B
:100C3800134800F091FF1348134B03604FF0006313
:100C480043608560C5604FF48063036145618561D9
:100C5800C5610562456200F099FD58B9094BE36327
:100C68009C6300221146272000F0EEFC272000F0AC
:100C7800FBFCB9E7FFF7AAFEF0E700BF0048004019
:100C8800000802408000002028600240DFF834D0CD
:100C9800FFF77EFF0C480D490D4A002302E0D458A7
:100CA800C4500433C4188C42F9D30A4A0A4C0023AE
:100CB80001E013600432A242FBD302F07DFDFFF78E
:100CC800DBFE70470000022000000020100000201A
:100CD8002C39000810000020F8060020FEE700006C
:100CE80010B504460E4B1A784FF47A73B3FBF2F33F
:100CF8000C4A1068B0FBF3F000F0BAFC68B90F2C8E
:100D080001D901200AE0002221464FF0FF3000F00F
:100D18009BFC054B1C60002000E0012010BD00BFBB
:100D280004000020000000200800002008B50B4B3C
:100D38001A6842F400721A601A6842F480621A60F3
:100D48001A6842F480721A60032000F06BFC0F20CE
:100D5800FFF7C6FFFFF7C4FE002008BD003C0240B5
:100D6800034A1168034B1B780B441360704700BF9C
:100D78002801002004000020014B1868704700BFBC
:100D88002801002038B50446FFF7F6FF0546B4F100
:100D9800FF3F02D0044B1B781C44FFF7EDFF401BBC
:100DA800A042FAD338BD00BF04000020002800F09C
:100DB800A18038B5044690F82030D3B12268136872
:100DC80043F001031360FFF7D7FF054623685A680D
:100DD80012F0010F10D1FFF7CFFF401B0A28F5D9F9
:100DE800636A43F400336362052384F820300120EA
:100DF80038BDFFF7C3FCE1E71A6822F002021A6067
:100E0800FFF7BAFF054623685A6812F0020F0DD0A3
:100E1800FFF7B2FF401B0A28F5D9636A43F4003391
:100E28006362052384F820300120E1E7227E012A4D
:100E38003DD01A6822F080021A60637E012B3BD0F5
:100E48002268136823F040031360A37E012B39D076
:100E58002268136823F020031360E37E012B37D048
:100E68002268136843F010031360237F012B35D0E9
:100E78002268136823F008031360637F012B33D0C3
:100E88002268136823F004031360A368E26813431D
:100E980022691343626913436268013A2168134364
:100EA800CB6100206062012384F82030A0E71A6833
:100EB80042F080021A60C0E72268136843F04003DA
:100EC8001360C2E72268136843F020031360C4E785
:100ED8002268136823F010031360C6E722681368BA
:100EE80043F008031360C8E72268136843F004035B
:100EF8001360CAE70120704790F82030013BDBB24D
:100F0800012B05D9436A43F48023436201207047CB
:100F180010B5474BD3F8002242F00102C3F8002273
:100F2800D3F8002222F47C52C3F80022D3F800221E
:100F3800486A42EA0022C3F800224A6902F01F0206
:100F4800012000FA02F2D3F81C026FEA020C20EA30
:100F58000200C3F81C02CB69CBB9354BD3F80C029D
:100F68000CEA0000C3F80C028C884869D1F80CE040
:100F780044EA0E44483043F830408C68088840EA18
:100F880004404C6904F1480E03EBCE035860CB696A
:100F9800012B1ED08B69002B35D12548D0F804329F
:100FA8000CEA0303C0F804320B699BBB2048D0F855
:100FB80014320CEA0303C0F814320B6A012B30D048
:100FC8001B4AD2F8003223F00103C2F80032002095
:100FD80010BD174BD3F80C021043C3F80C028C88D1
:100FE8004869D1F800E044EA0E44483043F83040FC
:100FF80088894C69D1F808E040EA0E40483403EB90
:10100800C4035860C6E70A48D0F804321343C0F84E
:101018000432C9E70648D0F814321343C0F8143232
:10102800CBE70349D1F81C321343C1F81C32C7E798
:101038000064004070B5044690F82050EDB2012DD0
:1010480006D0436A43F4002343620125284670BD55
:10105800022380F820300268136823F0010313602C
:10106800FFF78AFE064623685B6813F0010F0CD071
:10107800FFF782FE831B0A2BF5D9636A43F400331A
:101088006362052384F82030E0E700256562DDE728
:1010980030B590F820C00468A4680CF1FF3C5FFAF2
:1010A8008CFCBCF1010F62D814F0E05F59D0C4F396
:1010B800016C012404FA0CF41C608B68002B3DD1F0
:1010C8000D68CB68046843EA45550CF118031B0109
:1010D800E55003680C690CF1180E03EB0E135C6005
:1010E8000B7D012B35D0D17993791B0443EA016339
:1010F800517943EA012314790168234301EB0C1168
:10110800C1F88C31D17893781B0443EA0163517894
:1011180043EA0123117802680B4302EB0C12C2F870
:10112800883102680CF1180C4FEA0C1C52F80C308C
:1011380043F0010342F80C3000201DE04C6843EAFC
:10114800C403CC6823430CF11804240105682B510F
:10115800BFE7036803EB0E13596841F480715960C7
:10116800C1E7436A43F400134362012004E0436A81
:1011780043F480234362012030BD90F82030013BC6
:10118800DBB2012B01D9002070470368986810F082
:10119800806000D001209A6812F0006F00D0013002
:1011A8009B6813F0805FEFD00130704790F820C043
:1011B8000CF1FF3C5FFA8CFCBCF1010F00F2A5803A
:1011C80030B451B90468E46814F0030F10D1436ACD
:1011D80043F40013436201207EE00468246914F09C
:1011E800030F05D1436A43F400134362012073E0FF
:1011F800056801F11B0424012C5904F004049460CF
:10120800002C6BD1056801F11B0424012C59640DD5
:101218001460046801F11B0C4FEA0C1C54F80C40D4
:1012280004F00204D4600468A444DCF8045015F007
:10123800080F5BD008241461046801F11B0C04EB4F
:101248000C146468C4F307249461046804EB0C1458
:101258006468240C5461026802EB0112D2F8B821C8
:101268001A70026802EB0112D2F8B821C2F3072201
:101278005A70026802EB0112D2F8B821C2F3074291
:101288009A70026802EB0112D2F8B821120EDA70D5
:10129800026802EB0112D2F8BC211A71026802EB53
:1012A8000112D2F8BC21C2F307225A71026802EB7C
:1012B8000112D2F8BC21C2F307429A71026802EB0C
:1012C8000112D2F8BC21120EDA71C1B90268D368D2
:1012D80043F02003D360002030BC7047056801F15B
:1012E8001B0424012C59E408546092E701F11B0502
:1012F80004EB0514646804F00F0414619CE70268A9
:10130800136943F020031361E5E7436A43F480233C
:1013180043620120704790F82030013BDBB2012B7B
:1013280005D9436A43F48023436201207047026869
:1013380053690B43536100207047704770477047EB
:1013480070477047704770477047704770477047DD
:101358002DE9F84F054603685C69D3F804809F6857
:10136800D3F80CA0D3F81090D3F818B014F00106F5
:101378003BD017F0010616D001229A6017F0020F31
:1013880008D117F0040F0CD117F0080606D04FF457
:10139800805608E0FFF7D1FF002604E0FFF7D0FFF2
:1013A80001E04FF4006617F4807F0DD02B684FF4EE
:1013B80080729A6017F4007F40F0968017F4806F6F
:1013C80000F0968046F4005617F4803F0DD02B6845
:1013D8004FF480329A6017F4003F40F0938017F47E
:1013E800802F00F0938046F4004614F0080F07D0D1
:1013F8001AF0100F04D046F400762B681022DA6039
:1014080014F0040F03D01AF0080F40F0898014F08C
:10141800020F05D02B68DB6813F0030F40F08780BC
:1014280014F0400F07D019F0100F04D046F480666E
:101438002B6810221A6114F0200F02D019F0080F3F
:1014480079D114F0100F04D02B681B6913F0030F27
:1014580078D114F4003F02D018F0100F76D114F4AC
:10146800803F02D018F0080F77D114F4004F37D01E
:1014780018F0040F31D014F4807F04D01BF0010F52
:1014880001D046F0010614F4007F04D01BF0020FCF
:1014980001D046F0020614F4806F04D01BF0040F4C
:1014A80001D046F0040614F4006F16D01BF0700B40
:1014B80013D0BBF1400F66D056D8BBF1200F5CD0DB
:1014C800BBF1300F5CD0BBF1100F01D146F008061C
:1014D8002A68936923F0700393612B6804225A6089
:1014E800002E56D1BDE8F88F2846FFF727FF6BE797
:1014F80017F4006F02D046F4804665E72846FFF7E8
:1015080020FF61E72846FFF71AFF6EE717F4002F60
:1015180002D046F4803668E72846FFF713FF64E7F1
:101528002B680822DA602846FFF70DFF6FE7284688
:1015380001F016FE74E72B6808221A612846FFF7A7
:1015480003FF7EE7284601F07FFD82E72B68102223
:101558005A602846FFF7F9FE81E72B6808225A608F
:101568002846FFF7F3FE80E7BBF1500F0ED0BBF122
:10157800600FADD146F48076AAE746F01006A7E7DB
:1015880046F02006A4E746F04006A1E746F08006AC
:101598009EE76B6A33436B622846FFF7D8FEA1E7E4
:1015A800002807DB00F01F02400901239340024A8C
:1015B80042F82030704700BF00E100E0002808DB57
:1015C8000901C9B200F1604000F5614080F80013DC
:1015D800704700F00F000901C9B2014B1954704758
:1015E80014ED00E000B500F00700C0F1070CBCF1F5
:1015F800040F28BF4FF0040C031D062B0FD9C31E80
:101608004FF0FF3E0EFA0CF021EA000199400EFA65
:1016180003FE22EA0E0241EA02005DF804FB002301
:10162800EEE70000074AD36823F4E0631B041B0CB1
:10163800000200F4E060034343F0BF6343F4003367
:10164800D360704700ED00E010B50446054BD8683C
:10165800C0F30220FFF7C6FF01462046FFF7AEFFA2
:1016680010BD00BF00ED00E008B5FFF799FF08BD09
:101678000138B0F1807F0BD24FF0E0235861054A62
:10168800F02182F823100020986107221A61704720
:101698000120704700ED00E030B405682C6824F4A0
:1016A80080242C60046863608368402B05D003683D
:1016B80099600368DA6030BC704703689A60036811
:1016C800D960F8E710B40368D9B21039094AA2FB07
:1016D80001421209084CA25CC2655F2906D96FF362
:1016E800090304338365806D10BC70476FF30903E9
:1016F8008365F8E7ABAAAAAA10390008836A826949
:1017080092B9012B0AD0022B02D00BB100207047EE
:10171800C36A13F0807F28D100207047C36AB3F1F1
:10172800C07F24D000207047B2F5005F09D0022B9B
:1017380025D9032B25D1C36A13F0807F23D100203C
:101748007047032B03D8DFE803F01404140A0020C1
:101758007047C36A13F0807F0DD100207047C36AB9
:10176800B3F1C07F09D000207047012070470120E5
:101778007047012070470120704701207047012001
:1017880070470020704701207047000070B504467C
:10179800FFF7F2FA002C5BD00546022384F83530B7
:1017A800002384F834302268136823F0010313609F
:1017B80023681A6812F0010F0AD0FFF7DDFA431BFD
:1017C800052BF5D920236365032084F8350070BD07
:1017D8001A68204911406268A0680243E068024321
:1017E8002069024360690243A0690243E069024339
:1017F800206A02430A43616A04291ED01A602668D7
:10180800756925F00705636A1D43042B07D1A36A90
:101818001D43E36A1BB12046FFF770FF90B975615D
:101828002046FFF74FFFE26D3F239340836000207F
:101838006065012384F83530C9E7E16A206B01430C
:101848000A43DBE740236365012084F83500BEE7DF
:101858000120BCE73F8010F038B50446856D90F84C
:10186800340001282BD0012084F8340094F8350086
:10187800C0B2012804D0002384F83430022038BDD7
:10188800022084F83500002060652046FFF704FF39
:10189800E26D3F239340AB602268136843F0160360
:1018A8001360236C23B12268136843F008031360A4
:1018B8002268136843F0010313600020DFE7022069
:1018C800DDE770B50446866DFFF756FA94F83530B3
:1018D800DBB2022B06D080236365002384F8343002
:1018E800012070BD05462268136823F016031360B3
:1018F8002268536923F080035361236CE3B12268A3
:10190800136823F0080313602268136823F00103A7
:10191800136023681B6813F0010F11D0FFF72CFA2E
:10192800431B052BF5D920236365032084F8350074
:10193800002384F83430D4E7A36C002BDFD1E3E72D
:10194800E26D3F239340B360012384F835300020D3
:1019580084F83400C5E790F83530DBB2022B03D0A9
:101968008023436501207047052380F835300268DD
:10197800136823F00103136000207047F0B583B0AB
:10198800044600230193724B1D68724BA3FB053577
:10199800AD0A876D3E68C26D08239340334210D06C
:1019A80003681A6812F0040F0BD01A6822F00402B8
:1019B8001A60C26D08239340BB60436D43F0010376
:1019C8004365E26D01239340334209D0226852698E
:1019D80012F0800F04D0BB60636D43F002036365AF
:1019E800E26D04239340334209D02268126812F052
:1019F800020F04D0BB60636D43F004036365E26DBE
:101A080010239340334224D02268126812F0080F42
:101A18001FD0BB6023681A6812F4802F0DD01B6892
:101A280013F4002F04D1236C9BB12046984710E093
:101A3800A36C73B1204698470BE01A6812F4807FB4
:101A480003D11A6822F008021A60236C0BB12046F1
:101A58009847E26D20239340334255D0226812689C
:101A680012F0100F50D0BB6094F83530DBB2052B64
:101A78000ED023681A6812F4802F33D01B6813F431
:101A8800002F2AD1636C002B3ED0204698473BE0BC
:101A98002268136823F0160313602268536923F041
:101AA80080035361236CA3B12268136823F00803F1
:101AB8001360E26D3F239340BB60012384F8353007
:101AC800002384F83430236D002B3FD020469847FC
:101AD8003CE0A36C002BE7D1EBE7E36BA3B1204616
:101AE800984711E01A6812F4807F09D11A6822F029
:101AF80010021A60012384F83530002384F834304A
:101B0800E36B0BB120469847636DFBB1636D13F02F
:101B1800010F17D0052384F835302268136823F0A5
:101B280001031360019B01330193AB4204D823687E
:101B38001B6813F0010FF5D1012384F83530002319
:101B480084F83430E36C0BB12046984703B0F0BDFD
:101B580000000020B5814E1B00230F2B00F2EC8003
:101B680030B583B068E085684FEA430E032404FA71
:101B78000EF425EA0405CC6804FA0EF42C438460BC
:101B8800446824EA02044A68C2F300129A402243D5
:101B980042605FE0DC08083450F8242003F00705B1
:101BA800AD004FF00F0E0EFA05FE22EA0E0E0A697E
:101BB800AA4042EA0E0240F824205FE0072200E033
:101BC800002202FA0EF22A4302345C4D45F8242022
:101BD8005B4A94686FEA0C0224EA0C05D1F804E029
:101BE8001EF4801F01D04CEA0405554CA560E4683A
:101BF80002EA0405D1F804E01EF4001F01D04CEA03
:101C080004054F4CE560646802EA0405D1F804E075
:101C18001EF4003F01D04CEA0405494C6560246875
:101C280022404D6815F4803F01D04CEA0402444C30
:101C3800226001330F2B7DD801229A400C6804EAF8
:101C4800020C32EA0404F4D14C6804F00304013CA9
:101C5800012C88D94A6802F00302032A09D0C46813
:101C68005D000322AA4024EA02048A68AA402243AB
:101C7800C2604A6802F00302022A8BD004684FEA65
:101C8800430E032202FA0EF224EA02044A6802F022
:101C9800030202FA0EF2224302604A6812F4403F3D
:101CA800C7D000220192274A546C44F480445464FB
:101CB800526C02F480420192019A9C08A51C1F4AAA
:101CC80052F8255003F0030E4FEA8E0E0F2202FA47
:101CD8000EF225EA02051C4A90423FF471AF02F564
:101CE800806290421AD002F58062904218D002F5C4
:101CF8008062904216D002F58062904214D002F5BC
:101D08008062904212D002F58062904210D002F5B3
:101D1800806290423FF452AF082252E7012250E716
:101D280002224EE703224CE704224AE7052248E74D
:101D3800062246E703B030BD704700BF00380140B7
:101D4800003C014000380240000002400AB18161B5
:101D58007047090481617047002800F0E08170B580
:101D680082B00446036813F0010F3BD09F4B9B6879
:101D780003F00C03042B2CD09C4B9B6803F00C0342
:101D8800082B21D06368B3F5803F4FD0B3F5A02F5F
:101D980052D0964B1A6822F480321A601A6822F4DC
:101DA80080221A606368002B50D0FEF7E5FF0546D5
:101DB8008E4B1B6813F4003F14D1FEF7DDFF401B68
:101DC8006428F5D90320B1E1884B5B6813F4800FD0
:101DD800D8D0864B1B6813F4003F03D06368002BF0
:101DE80000F09F81236813F0020F54D07F4B9B684B
:101DF80013F00C0F3ED07D4B9B6803F00C03082BAF
:101E080033D0E368002B68D0794B01221A60FEF7C3
:101E1800B3FF0546754B1B6813F0020F54D1FEF74C
:101E2800ABFF401B0228F5D903207FE16F4A1368F6
:101E380043F480331360B5E76C4B1A6842F4802290
:101E48001A601A6842F480321A60ABE7FEF794FF12
:101E58000546664B1B6813F4003FC3D0FEF78CFFA2
:101E6800401B6428F5D9032060E1604B5B6813F4DC
:101E7800800FC6D15D4B1B6813F0020F03D0E368D7
:101E8800012B40F05081594A136823F0F803216967
:101E980043EAC1031360236813F0080F42D0636953
:101EA8006BB3534B0122C3F8802EFEF765FF05463E
:101EB8004E4B5B6F13F0020F34D1FEF75DFF401BF2
:101EC8000228F5D9032031E1484A136823F0F803C2
:101ED800216943EAC1031360DDE7454B00221A601C
:101EE800FEF74AFF0546414B1B6813F0020FD2D09C
:101EF800FEF742FF401B0228F5D9032016E13C4BB0
:101F08000022C3F8802EFEF737FF0546374B5B6F7C
:101F180013F0020F06D0FEF72FFF401B0228F5D959
:101F2800032003E1236813F0040F77D02F4B1B6CB9
:101F380013F0805F33D1002301932C4B1A6C42F0CD
:101F480080521A641B6C03F080530193019B012596
:101F5800284B1B6813F4807F23D0A368012B34D04F
:101F6800052B38D0214B1A6F22F001021A671A6F1D
:101F780022F004021A67A368002B3DD0FEF7FCFE8E
:101F880006461A4B1B6F13F0020F46D1FEF7F4FEFC
:101F9800801B41F288339842F3D90320C6E000251C
:101FA800D6E7144A136843F480731360FEF7E4FE1F
:101FB8000646104B1B6813F4807FCED1FEF7DCFE7B
:101FC800801B0228F5D90320B0E0084A136F43F0BC
:101FD80001031367CFE7054B1A6F42F004021A6733
:101FE8001A6F42F001021A67C5E700BF00380240C5
:101FF8000000474200700040FEF7BEFE0646524B06
:102008001B6F13F0020F08D0FEF7B6FE801B41F2DB
:1020180088339842F3D9032088E0EDB9A369002BEF
:1020280000F08380484A926802F00C02082A51D0D6
:10203800022B17D0454B00221A66FEF79DFE044678
:10204800414B1B6813F0007F42D0FEF795FE001B42
:102058000228F5D9032069E03B4A136C23F080532A
:102068001364DBE7394B00221A66FEF785FE054646
:10207800354B1B6813F0007F06D0FEF77DFE401B32
:102088000228F5D9032051E0E369226A1343626A02
:1020980043EA8213A26A5208013A43EA0243E26A17
:1020A80043EA0263284A5360284B01221A66FEF766
:1020B80063FE0446244B1B6813F0007F06D1FEF72D
:1020C8005BFE001B0228F5D903202FE000202DE03D
:1020D80000202BE0012B2BD01B4B5B6803F4800105
:1020E800E269914226D103F03F02216A8A4223D154
:1020F800616A47F6C0721A40B2EB811F1ED103F421
:102108004031A26A5208013AB1EB024F18D103F0EC
:102118007063E26AB3EB026F14D1002006E001207D
:102128007047012002E0012000E0002002B070BDED
:102138000120FBE70120F9E70120F7E70120F5E797
:102148000120F3E70120F1E7003802400000474290
:1021580008B5264B9B6803F00C03042B41D0082BD1
:1021680041D1224B5A6802F03F025B6813F4800F9A
:1021780012D01E4B5968C1F388111D480023A1FBDA
:102188000001FEF75BFA194B5B68C3F301430133A7
:102198005B00B0FBF3F008BD144B5868C0F388101F
:1021A8004FEA401CBCEB000C6EEB0E0E4FEA8E1390
:1021B80043EA9C634FEA8C11B1EB0C0163EB0E030D
:1021C800DB0043EA5173C90011EB000C43F1000333
:1021D800990200234FEA8C2041EA9C51FEF72EFA1F
:1021E800D1E70348D7E70348D5E700BF00380240E6
:1021F800001BB7000024F400002800F09B8070B595
:102208000D4604464F4B1B6803F007038B4208D268
:10221800CBB24C4A1370136803F007038B4240F0AB
:102228008B80236813F0020F17D013F0040F04D02B
:10223800454A936843F4E0539360236813F0080F0A
:1022480004D0414A936843F4604393603E4A9368DC
:1022580023F0F003A1680B439360236813F0010F88
:1022680032D06368012B21D09A1E012A25D9364A1B
:10227800126812F0020F61D033498A6822F0030213
:1022880013438B60FEF778FD06462F4B9B6803F0DF
:102298000C036268B3EB820F16D0FEF76DFD801B4E
:1022A80041F288339842F0D9032042E0264A126866
:1022B80012F4003FE0D101203BE0234A126812F0FB
:1022C800007FD9D1012034E01E4B1B6803F00703BF
:1022D800AB4207D9EAB21B4B1A701B6803F007031D
:1022E800AB422DD1236813F0040F06D0164A936829
:1022F80023F4E053E1680B439360236813F0080F5D
:1023080007D0114A936823F46043216943EAC10363
:102318009360FFF71DFF0C4B9B68C3F303130B4A35
:10232800D35CD8400A4B18600A4B1868FEF7D8FCF3
:10233800002070BD012070470120FAE70120F8E76E
:102348000120F6E7003C024000380240003900084E
:102358000000002008000020014B1868704700BFEB
:102368000000002008B5FFF7F7FF044B9B68C3F394
:102378008223034AD35CD84008BD00BF003802401E
:10238800F838000808B5FFF7E7FF044B9B68C3F36C
:102398004233034AD35CD84008BD00BF003802402E
:1023A800F8380008026802F10C0353E8003F23F0F4
:1023B800C0030C3242E800310029F3D1202380F811
:1023C80041307047026802F10C0353E8003F23F4E0
:1023D80090730C3242E800310029F3D1026802F10F
:1023E800140353E8003F23F00103143242E800319C
:1023F8000029F3D1036B012B05D0202380F842304C
:10240800002303637047026802F10C0353E8003F9E
:1024180023F010030C3242E800310029F3D1ECE735
:1024280090F84130DBB2212B01D00220704783683D
:10243800B3F5805F17D0036A5A1C02621A780368E2
:102448005A60C38C9BB2013B9BB2C3844BB90268F0
:10245800D36823F08003D3600268D36843F0400355
:10246800D360002070470369002BE4D1036A1B88FE
:102478000268C3F308035360036A02330362E0E7A8
:1024880010B504460268136923F44053C1680B432E
:102498001361836802691A4343691A43C3691A437B
:1024A8000168CB6823F4164323F00C031343CB6075
:1024B8000268536923F4407381690B4353610368CD
:1024C800314A934206D002F58062934202D0FFF768
:1024D80049FF01E0FFF756FFE369B3F5004F29D044
:1024E8000021031849411B1841F10001C90041EAC4
:1024F8005371DB00181863684FEA83024FEA93733D
:1025080041F10001FEF79AF8204AA2FB003149097F
:10251800642303FB11031B013233A2FB03235B0972
:1025280003F0F00202EB011203F00F0321681344D9
:102538008B6010BD0023021843EB0301121841F110
:102548000001C90041EA5271D200101841F100019E
:10255800626892185B41FEF771F80C4AA2FB0031E1
:102568004909642303FB1103DB003233A2FB032375
:102578005B095A0002F4F87202EB011203F0070338
:10258800216813448B60D4E7001001401F85EB518C
:1025980060B310B5044690F8413013B3242384F88F
:1025A80041302268D36823F40053D3602046FFF7F4
:1025B80067FF2268136923F4904313612268536903
:1025C80023F02A0353612268D36843F40053D3608D
:1025D80000206064202384F8413084F8423060632E
:1025E80010BD80F84030FEF7F3FAD7E701207047B6
:1025F800704708B50168CA6822F04002CA60202204
:1026080080F84120FFF7F4FF002008BD70477047AD
:10261800704710B5846B23685A6994F84130DBB26F
:10262800212B10D023685A6902F0400294F84230F6
:10263800DBB2222B11D0636C43F010036364204695
:10264800FFF7E6FF10BD02F08002002AEAD000235F
:10265800E3842046FFF7A6FEE4E7002AEBD0002338
:10266800E3852046FFF7AEFEE5E708B5806B00235B
:10267800C385C384FFF7CCFF08BD90F84230DBB2B6
:10268800222B69D18368B3F5805F4FD0826AB3F596
:10269800805F04D0002B56D10369002B53D1036807
:1026A8005B681370836A01338362C38D9BB2013BFD
:1026B8009BB2C385002B51D100B583B00268D368A3
:1026C80023F02003D3600268D36823F48073D360B7
:1026D8000268536923F001035361202380F84230D4
:1026E80000234363036B012B33D100230363026888
:1026F80002F10C0353E8003F23F010030C3242E8C8
:1027080000310029F3D103681A6812F0100F06D0BF
:10271800002201921A6801925B680193019B818DE6
:10272800FEF73AF9002003B05DF804FB0269002ABD
:10273800ACD1826A03685B68C3F308031380836AB9
:1027480002338362B1E703685B6803F07F031370A9
:10275800A8E7FFF75BFFE5E7022070470020704716
:1027680010B582B0044602681368D068516913F046
:102778000F0F09D113F0200F0CD010F0200F09D043
:102788002046FFF77AFF16E011F0010115D110F489
:10279800907F12D1216B012979D013F0800F03D0DB
:1027A80010F0800F40F0148113F0400F03D010F0A8
:1027B800400F40F0118102B010BD13F0010F06D098
:1027C80010F4807F03D0626C42F00102626413F05F
:1027D800040F04D019B1626C42F00202626413F073
:1027E800020F04D019B1626C42F00402626413F063
:1027F800080F07D010F0200F00D119B1626C42F019
:1028080008026264626C002AD5D013F0200F02D04F
:1028180010F0200F29D123685B6903F04003626C34
:1028280012F0080F00D163B32046FFF7CBFD2368F1
:102838005B6913F0400F20D0226802F1140353E8BB
:10284800003F23F04003143242E800310029F3D15D
:10285800E36B73B1624A1A65E06BFFF77CF80028F6
:10286800A9D0E06B036D9847A5E72046FFF705FF61
:10287800D1E72046FFF7CCFE9DE72046FFF7C8FECC
:1028880099E72046FFF7C4FE0023636493E713F03B
:10289800100F82D010F0100F3FF47FAF0023019388
:1028A8001368019353680193019B536913F0400F18
:1028B80052D0E26B13685B689BB2002B3FF47BAF8E
:1028C800A18D99427FF677AFE385D369B3F5807F11
:1028D80037D0226802F10C0353E8003F23F48073D9
:1028E8000C3242E800310029F3D1226802F11403C6
:1028F80053E8003F23F00103143242E80031002975
:10290800F3D1226802F1140353E8003F23F0400397
:10291800143242E800310029F3D1202384F84230F0
:1029280000232363226802F10C0353E8003F23F0DD
:1029380010030C3242E800310029F3D1E06BFEF7B6
:10294800C0FF02236363A18DE38D9BB2C91A89B2CC
:102958002046FEF721F82EE7A18DE38D9BB2C91A18
:1029680089B2E38D9BB2002B3FF425AF00293FF4D9
:1029780022AF226802F10C0353E8003F23F490735E
:102988000C3242E800300028F3D1226802F1140327
:1029980053E8003F23F00103143242E800300028D6
:1029A800F3D1202384F8423000232363226802F104
:1029B8000C0353E8003F23F010030C3242E80030C8
:1029C8000028F3D1022363632046FDF7E5FFF2E612
:1029D8002046FFF725FDEEE62046FFF70AFEEAE669
:1029E8007326000808B5806B01234363036B012B32
:1029F80002D0FFF70CFE08BD818D4908FDF7CCFF1A
:102A0800F9E708B50346806B1B681B6813F4807FE1
:102A18002BD10023C385026802F10C0353E8003F61
:102A280023F480730C3242E800310029F3D10268A4
:102A380002F1140353E8003F23F00103143242E883
:102A480000310029F3D1026802F1140353E8003F72
:102A580023F04003143242E800310029F3D1202347
:102A680080F84230036B012B07D000234363036BCC
:102A7800012B0FD0FFF7CAFD08BD026802F10C0355
:102A880053E8003F23F010030C3242E800310029DC
:102A9800F3D1EAE7818DFDF77FFFEDE730B583B02D
:102AA800044613468162828500254564222280F807
:102AB8004220C26B1F48D063E26B1F481064E26B70
:102AC8001E48D064E26B156520680A46011DE06B5C
:102AD800FEF7C2FE019523681A6801925B680193AC
:102AE800019B23695BB1226802F10C0353E8003FA4
:102AF80043F480730C3242E800310029F3D1226894
:102B080002F1140353E8003F43F00103143242E892
:102B180000310029F3D1226802F1140353E8003F81
:102B280043F04003143242E800310029F3D1002079
:102B380003B030BD0B2A0008ED2900081B26000849
:102B480090F84230DBB2202B29D110B582B0044670
:102B580039B312B9012002B010BD01230363002369
:102B68004363FFF79BFF0028F5D1236B012B01D0AE
:102B78000120F0E70023019323681A6801925B683B
:102B88000193019B226802F10C0353E8003F43F0D4
:102B980010030C3242E800310029F3D1DBE70220B0
:102BA80070470120D7E7034600283DD002784078D7
:102BB80042EA0022C2F30A020A8058789A7852013F
:102BC80042EAD002C2F30A024A809878DA78920080
:102BD80042EA9012187942EA8022C2F30A028A80F5
:102BE80018795A79D20142EA5002C2F30A02CA801D
:102BF8005A7992090A725A79C2F301124A729A7979
:102C0800D87942EA00224A811A7A587A42EA00229E
:102C18008A819A7AD87A42EA0022CA811A7B0A748F
:102C28005A7B4A749B7B4B827047000010B5064C58
:102C3800122206492046FFF783FFE36B1A681368E0
:102C480023F00803136010BDE00000202C010020D1
:102C580070B506462D4BB3F91A40FDF7FFFB2C491A
:102C6800FDF78EFA05462046FDF7F8FB2946FDF7E5
:102C78003FFB04464FF08B41FDF7B0FC00283AD0EB
:102C8800224A136901331361204C6683206940038B
:102C9800FDF7E4FB2946FDF72DFB0021FDF72AFB94
:102CA800FDF7A6FC00B2A082FDF7D8FB0546194B3C
:102CB8001860B4F91600FDF7D1FB024629461648FC
:102CC80000F00AFB0546B4F90600FDF7C7FB02460B
:102CD800124C2946204600F0FFFA256B104B186B62
:102CE800FDF786FC04B22846FDF782FC214600B2B7
:102CF80000F086F970BD0B492046FDF751FC00280D
:102D0800C2D0024A1369013B1361BDE77403002076
:102D1800B005B641480300205C0400209004002060
:102D280028040020000080C570B5FDF797FB1949FD
:102D3800FDF726FA0021FDF7DDFAFDF759FC04B28C
:102D4800154DAC82A888154B1880FDF783FB064605
:102D58002046FDF783FB01463246114800F0BCFAD5
:102D68000446B5F90600FDF779FB02460D4D2146EC
:102D7800284600F0B1FA0C4B1E6B286BFDF738FCA7
:102D880004B23046FDF734FC214600B200F038F9B1
:102D980070BD00BFB005B6415403002040030020B9
:102DA800F403002028040020900400202DE9F041BD
:102DB80082B00C46FDF752FB1E49FDF7E1F9FDF71D
:102DC80017FC064600902046FDF748FB1949FDF719
:102DD800D7F9FDF70DFC05460190174CB4F906002C
:102DE800FDF73CFB07463046FDF738FB0146DFF8A8
:102DF8004C803A46404600F06FFAFDF7F9FB6080D8
:102E0800B4F92600FDF72AFB06462846FDF726FBFF
:102E18000146324608F1340000F05EFAFDF7E8FB9F
:102E280001B26184B4F9020000F0A6F802B0BDE86E
:102E3800F08100BF00001041B4030020F804002016
:102E480038B5FDF70BFB0B49FDF79AF904460A4B19
:102E580018600A4DB5F90600FDF700FB0246214649
:102E6800074800F039FAFDF7C3FB00B2688000F0AC
:102E7800A7F838BD00001041440300209403002047
:102E8800C404002008B5002000F09AF80021084684
:102E980000F072F808BD000008B5104BB3F9043013
:102EA800032B05D00D4BB3F90430012B0DD008BD11
:102EB8000A4BB3F90630032BF4D1C8210846FFF7B3
:102EC80075FF1E20FFF7BCFFECE7044BB3F9063093
:102ED800022BECD1FFF7D6FFE9E700BF4C03002037
:102EE80010B58AB0002412E001220892059400234C
:102EF80004930093019302930393069307920E237E
:102F0800099369460848FDF7F7FF0134E4B20D2C30
:102F1800EAD9054C2046FEF78DF802212046FEF737
:102F2800FAF90AB010BD00BF5800002010B58AB0E9
:102F3800012308930E220592049344F2A002009202
:102F480044F2C002019244F2E00202924FF482423B
:102F58000392069300230793064C69462046FDF723
:102F6800CBFF2046FEF766F810212046FEF7D3F97E
:102F78000AB010BD3000002000B589B040F2FF1340
:102F880002930823069300230493059303128DF8F4
:102F980004308DF805000B128DF806308DF80710F7
:102FA8000648FEF7EAF810B909B05DF804FB0123FA
:102FB80001AA02A90148FEF76BF8F5E758000020BE
:102FC80000B589B04FF400730293082306930023D9
:102FD8000493059303128DF804308DF80500074813
:102FE800FEF7CBF810B909B05DF804FB01236A4677
:102FF80002A90248FEF74CF8F5E700BF5800002088
:1030080000B589B040F2FF1302930823069300230A
:103018000493059303128DF804308DF805000B1204
:103028008DF806308DF807100648FEF7A6F810B997
:1030380009B05DF804FB022301AA02A90148FEF7C2
:1030480027F8F5E7300000200268334B9A4200D099
:10305800704700B58BB001AB03AA0121FEF7A6F8B3
:10306800039B40F20522934220D0B3F5017F47D954
:10307800A3F20623012B43D89DF804309DF80520C0
:1030880042EA0322254B9A809DF806109DF80720F6
:1030980042EA0122DA809DF808109DF8092042EAE8
:1030A80001221A819DF80A209A7229E09DF80420CD
:1030B8009DF8053043EA022318B2194A93809DF817
:1030C80006C09DF8071041EA0C21D1809DF808C080
:1030D8009DF8091041EA0C2111819DF80A1091729E
:1030E800B2F91820D21AB2F5805F0CDD0C49CA6813
:1030F8000132CA600A4A1083D16803EB4133D38294
:103108000BB05DF804FB12F5805FF3DA0449CA6876
:10311800013ACA60EEE700BF00680040540300208F
:103128007403002010B50D4C01224FF48061204635
:10313800FEF70CFE00224FF480612046FEF706FEE3
:1031480001224FF480612046FEF700FE00224FF472
:1031580080612046FEF7FAFD10BD00BF001C02404A
:103168000268554B9A4200D0704700B58BB001AB4E
:1031780003AA0021FEF71AF8039BA3F205230C2BE0
:1031880000F29580DFE803F076275C4193939393F0
:103198009393939307009DF804309DF8052042EA25
:1031A8000322464B1A809DF806109DF8072042EA34
:1031B80001225A809DF808109DF8092042EA012250
:1031C8009A809DF80A109DF80B2042EA0122DA80C5
:1031D800FFF7A8FF6DE09DF804309DF8052042EA4E
:1031E8000322374B9A809DF806109DF8072042EA83
:1031F8000122DA809DF808109DF8092042EA012290
:103208001A819DF80A209A7253E09DF804309DF8BF
:10321800052042EA03222A4B9A849DF806109DF85D
:10322800072042EA0122DA849DF808109DF8092057
:1032380042EA01221A859DF80A2083F82A2038E0FC
:103248009DF804309DF8052042EA03221D4B9A8020
:103258009DF806109DF8072042EA0122DA809DF8C1
:1032680008109DF8092042EA01221A819DF80A20D7
:103278009A721EE09DF804309DF8052042EA032268
:103288000E4B1A809DF806109DF8072042EA01228D
:103298005A809DF808109DF8092042EA01229A8078
:1032A8009DF80A109DF80B2042EA0122DA80FFF708
:1032B80039FF0BB05DF804FB006400404C030020AC
:1032C800B403002094030020016042608360009BE7
:1032D800C360019B036170472DE9F8430446084623
:1032E80011466061A261D4F81C80C4F82080FCF704
:1032F800FFFF0546E0612168FCF742FF0746606270
:10330800A66A61682846FCF73BFF01463046FCF791
:10331800F1FF0646A062D4F8089041462846FCF71B
:10332800E7FF01464846FCF72BFF0546E062D4F864
:103338000C9009F1004841463046FDF73BF928B9A1
:1033480049463046FDF740F9E8B1C846C4F8288038
:1033580041463846FCF7CEFF01462846FCF7CAFF2F
:1033680005462063276907F100463146FDF722F933
:1033780028B939462846FDF727F930B13E46266375
:103388003046BDE8F883B046E0E72E46F7E7000090
:10339800F0B583B00024214B0193009323462246C5
:1033A8001F492048FFF790FF4FF07E551E4B0193B1
:1033B8001E4B00932346224629461D48FFF784FFEB
:1033C8001C4B01930093234622461B491B48FFF7D9
:1033D8007BFF1B4F01971B4E00962346224629462A
:1033E8001948FFF771FF01970096234622462946A0
:1033F8001648FFF769FF00240CE00022074B0193F1
:103408000093134612493425124805FB0400FFF7C0
:103418005BFF0134012CF0DD03B0F0BD0060EA462B
:10342800000020419004002000007A4400007AC483
:103438005C04002000007A46000020422804002096
:103448000000C8420000C8C2F4030020C4040020E1
:1034580000007041F80400202DE9F047089D0E4651
:1034680004460F46002B4AD194468C45B2FA82F2A4
:1034780060D942B1C2F12003974020FA03F30CFA55
:1034880002FC1F4394404FEA1C4E1FFA8CF6B7FB10
:10349800FEF1230C0EFB117743EA074301FB06F00C
:1034A80098420AD91CEB030301F1FF3780F015811C
:1034B800984240F21281023963441B1AA4B2B3FB4A
:1034C800FEF00EFB103344EA034400FB06F6A64266
:1034D8000AD91CEB040400F1FF3380F00081A642F6
:1034E80040F2FD806444023840EA0140A41B0021F8
:1034F8001DB1D4400023C5E90043BDE8F0878B42E5
:1035080005D90DB1C5E9000100210846F5E7B3FA70
:1035180083F1002946D1B34202D3824200F2F580FA
:10352800841A66EB030201201746002DE5D0C5E991
:103538000047E2E7002A40F09380A1EB0C034FEA32
:103548001C471FFA8CFE0121B3FBF7F607FB163068
:10355800230C43EA00430EFB06F0984208D91CEB03
:10356800030306F1FF3802D2984200F2D0804646A3
:103578001B1AA4B2B3FBF7F007FB103344EA034469
:103588000EFB00FEA64508D91CEB040400F1FF332E
:1035980002D2A64500F2B6801846A4EB0E0440EA13
:1035A8000640A5E7C1F120078B4022FA07FC4CEA48
:1035B800030C06FA01FE20FA07F426FA07F344EA98
:1035C8000E0400FA01F84FEA1C404FEA1449B3FB15
:1035D800F0FE1FFA8CF600FB1E3349EA03430EFB8C
:1035E80006F9994502FA01F20BD91CEB03030EF117
:1035F800FF3A80F08580994540F28280AEF1020E54
:103608006344A3EB0909A4B2B9FBF0F300FB1399D7
:1036180044EA094403FB06F6A64208D91CEB040455
:1036280003F1FF3068D2A64266D9023B644443EAFC
:103638000E40A41BA0FB02E6B4427346B14652D327
:103648004FD05DB1B8EB030264EB090404FA07F745
:1036580022FA01F31F43CC40C5E9007400214CE76E
:10366800C2F1200120FA01F30CFA02FC26FA01F15A
:10367800964033434FEA1C471FFA8CFEB1FBF7F024
:1036880007FB1016190C41EA064100FB0EF68E42A4
:1036980004FA02F408D91CEB010100F1FF382DD21D
:1036A8008E422BD902386144891B9BB2B1FBF7F6D5
:1036B80007FB161143EA014306FB0EF1994208D9AC
:1036C8001CEB030306F1FF3814D2994212D9023ECB
:1036D80063445B1A46EA004136E73946EDE6184688
:1036E80002E7F045ADD2BEEB020366EB0C060138EB
:1036F800B146A6E74646ECE7034698E74046D3E7D7
:10370800D6467EE76444023847E708460DE7023E9E
:1037180063442DE7830730B547D0541E002A3ED0B6
:10372800CAB2034601E0013C39D303F8012B9D07D7
:10373800F9D1032C2CD9CDB205EB05250F2C05EBBF
:10374800054535D9A4F1100222F00F0C03F1100E33
:10375800E6444FEA121C1A46C2E90055C2E902556E
:1037680010327245F8D10CF1010214F00C0F03EB82
:10377800021204F00F0C13D0ACF1040323F003037E
:103788000433134442F8045B9342FBD10CF0030466
:103798002CB1C9B21C4403F8011BA342FBD130BDB4
:1037A80064461346002CF4D1F9E703461446C0E7F3
:1037B8001A46A446E0E700BF70B50F4B0F4DAB4269
:1037C800A3EB050607D0B610002455F8043B0134D6
:1037D8009847A642F9D800F07FF8094D094B5E1BBF
:1037E800AB424FEAA60606D0002455F8043B013444
:1037F8009847A642F9D870BD20390008203900083A
:103808002039000828390008704700BF704700BFFA
:10381800024B13B1024800F005B8704700000000E1
:1038280039380008002301461A46184600F014B833
:1038380038B5074D074C2C1BA41005D0013C55F892
:10384800043D9847002CF9D1BDE8384000F04AB84B
:103858002C390008283900082DE9F8431B4D064685
:10386800286898460F469146FFF7CEFF184B1C680C
:103878001CB3286865681F2D22DC4EB96B1C023505
:10388800636044F82570FFF7C1FF0020BDE8F883A6
:1038980004EB85010123C1F88890D4F88821AB4056
:1038A8001A43022EC4F88821C1F80881E6D1D4F859
:1038B8008C211A43C4F88C21E0E7064C1C60D8E739
:1038C800FFF7A4FF4FF0FF30E0E700BF0C00002037
:1038D8006405002068050020F8B500BFF8BC08BCE6
:1038E8009E467047F8B500BFF8BC08BC9E467047B6
:1038F80000000000010203040000000000000000B6
:10390800010203040607080900061016000610162F
:0839180048FBFF7F01000000E5
:0839200019380008E106000857
:04392800B9060008D4
:10392C000024F400010000001000000060050020DD
:0400000508000C954E
:00000001FF
